:060000000A128A11FC2F18
:100D4C008316031387010730831203139700950151
:100D5C00F9308316031392000530831203139200AB
:100D6C0008001F308316031386000A128A11A62668
:100D7C000A128A1183120313061CC52EC62EC02E0E
:100D8C0032300A128A117C270A128A11C02E0A12DA
:100D9C008A1100280030FC000030FB000030FA0003
:100DAC000030F900701CDB2EDC2EF32E7408F907D2
:100DBC00750803110318013E0319E52EFA0776088E
:100DCC0003110318013E0319EC2EFB0777080311DE
:100DDC000318013E0319F32EFC070130F800031031
:100DEC00F40DF50DF60DF70DF80BF52E0130031083
:100DFC00F30CF20CF10CF00CFF3E031DFD2E7308EE
:100E0C00720471047004031D0C2F0D2FD82E7C0856
:100E1C00F3007B08F2007A08F1007908F000080072
:100E2C00003083120313AB000030AA000030A9007D
:100E3C000030A80023082204210420040319272FC2
:100E4C00282F732F0130AC00362F0130FD0003101A
:100E5C00A00DA10DA20DA30DFD0B2D2F0130AC0784
:100E6C00A31F392F3A2F2B2F0130FD000310A80D93
:100E7C00A90DAA0DAB0DFD0B3C2F23082702031D5A
:100E8C00512F22082602031D512F21082502031D74
:100E9C00512F20082402031C542F552F642F200897
:100EAC00A4022108031C210FA5022208031C220FF7
:100EBC00A6022308031C230FA702281401300310D9
:100ECC00A30CA20CA10CA00CFF3E031D652F01303E
:100EDC00AC02031D722F732F3A2F2B08A3002A0884
:100EEC00A2002908A1002808A000080083120313FF
:100EFC00B30065303302031C842F852F872F643099
:100F0C00B30083160313120883120313AD00AE0152
:100F1C000310AD0DAE0D0310AD0DAE0D2D08043E3E
:100F2C00AF002E080318013E003EB0002F08B100A0
:100F3C003008B2000030A3000030A2000030A10045
:100F4C006430A0003308AD00AE01AF01B001300831
:100F5C00F3002F08F2002E08F1002D08F0003108E4
:100F6C00F4003208F500F601F7010A128A11D026B6
:100F7C000A128A11730883120313A7007208A600C1
:100F8C007108A5007008A4000A128A1116270A120B
:100F9C008A11831203132108B5002008B400350808
:100FAC00AE003408AD000310AE0CAD0C0310AE0C4B
:100FBC00AD0C2D0895003508AE003408AD000310BB
:100FCC00AE0CAD0C2D080139AF00AF0EAF0D1708EC
:100FDC002F06DF392F06970034080139AD00AD0E0E
:100FEC0017082D06EF392D069700080083010A1209
:040FFC008A11B72E71
:00000001FF
