:060000000A128A11FC2F18
:100C5E008316031307110C30831203139700F93018
:100C6E0083160313920005308312031392000800BB
:100C7E008312031306080139F3001A30F100F8301D
:100C8E00F000F00B482EF10B482E000083120313D8
:100C9E0006080139F20073087206031D572E582EEE
:100CAE005A2E73085B2EFF3008000030FC00003017
:100CBE00FB000030FA000030F900701C672E682E21
:100CCE007F2E7408F907750803110318013E0319E6
:100CDE00712EFA07760803110318013E0319782EB8
:100CEE00FB07770803110318013E03197F2EFC073B
:100CFE000130F8000310F40DF50DF60DF70DF80B9D
:100D0E00812E01300310F30CF20CF10CF00CFF3EAF
:100D1E00031D892E7308720471047004031D982E2E
:100D2E00992E642E7C08F3007B08F2007A08F100FD
:100D3E007908F0000800003083120313AB00003076
:100D4E00AA000030A9000030A800230822042104C4
:100D5E0020040319B32EB42EFF2E0130AC00C22E88
:100D6E000130FD000310A00DA10DA20DA30DFD0B72
:100D7E00B92E0130AC07A31FC52EC62EB72E0130DB
:100D8E00FD000310A80DA90DAA0DAB0DFD0BC82E6D
:100D9E0023082702031DDD2E22082602031DDD2E49
:100DAE0021082502031DDD2E20082402031CE02E3F
:100DBE00E12EF02E2008A4022108031C210FA5020B
:100DCE002208031C220FA6022308031C230FA702CE
:100DDE00281401300310A30CA20CA10CA00CFF3E92
:100DEE00031DF12E0130AC02031DFE2EFF2EC62E6A
:100DFE002B08A3002A08A2002908A1002808A00099
:100E0E0008001F3083160313860085010A128A110B
:100E1E002F260A128A1183120313BA01B601B701E3
:100E2E00061D1A2F1B2F1D2F01308500861D202F0A
:100E3E00212F232F02308500060801390A128A114C
:100E4E003F260A128A1183120313B800380A0319B7
:100E5E00312F322F4E2F3608031D362F372F4A2FA4
:100E6E003803031D3B2F3C2F4A2F64303A020318E0
:100E7E00412F422F442F0130BA073A080A128A1125
:100E8E007C270A128A11831203133808B600060C47
:100E9E0001390A128A113F260A128A11831203138C
:100EAE00B900390A03195C2F5D2F172F3708031D60
:100EBE00612F622F742F3903031D662F672F742F36
:100ECE003A0803196B2F6C2F6E2F0130BA023A08B5
:100EDE000A128A117C270A128A1183120313390807
:100EEE00B700172F0A128A11002883120313B300BA
:100EFE0065303302031C842F852F872F6430B30097
:100F0E0083160313120883120313AD00AE010310F0
:100F1E00AD0DAE0D0310AD0DAE0D2D08043EAF00A0
:100F2E002E080318013E003EB0002F08B100300815
:100F3E00B2000030A3000030A2000030A1006430E7
:100F4E00A0003308AD00AE01AF01B0013008F300D0
:100F5E002F08F2002E08F1002D08F0003108F400E1
:100F6E003208F500F601F7010A128A115C260A1200
:100F7E008A11730883120313A7007208A600710862
:100F8E00A5007008A4000A128A11A2260A128A115C
:100F9E00831203132108B5002008B4003508AE00F3
:100FAE003408AD000310AE0CAD0C0310AE0CAD0C3E
:100FBE002D0895003508AE003408AD000310AE0CB8
:100FCE00AD0C2D080139AF00AF0EAF0D17082F066F
:100FDE00DF392F06970034080139AD00AD0E170822
:100FEE002D06EF392D069700080083010A128A118B
:020FFE00082FBA
:00000001FF
